{
  "transactions": [
    {
      "hash": "0x773ca1d3147cf364a765e2eda16e6e40714ea86fe7973a61ea8b4a777cc1c221",
      "transactionType": "CALL",
      "contractName": null,
      "contractAddress": "0x158d291d8b47f056751cff47d1eecd19fdf9b6f8",
      "function": "mint(address,uint256)",
      "arguments": [
        "0x2F54D1563963fC04770E85AF819c89Dc807f6a06",
        "9999999999"
      ],
      "transaction": {
        "from": "0xf39fd6e51aad88f6f4ce6ab8827279cfffb92266",
        "to": "0x158d291d8b47f056751cff47d1eecd19fdf9b6f8",
        "gas": "0xb88b",
        "value": "0x0",
        "input": "0x40c10f190000000000000000000000002f54d1563963fc04770e85af819c89dc807f6a0600000000000000000000000000000000000000000000000000000002540be3ff",
        "nonce": "0x13b",
        "chainId": "0x1"
      },
      "additionalContracts": [],
      "isFixedGasLimit": false
    }
  ],
  "receipts": [
    {
      "status": "0x1",
      "cumulativeGasUsed": "0x859c",
      "logs": [
        {
          "address": "0x158d291d8b47f056751cff47d1eecd19fdf9b6f8",
          "topics": [
            "0xddf252ad1be2c89b69c2b068fc378daa952ba7f163c4a11628f55a4df523b3ef",
            "0x0000000000000000000000000000000000000000000000000000000000000000",
            "0x0000000000000000000000002f54d1563963fc04770e85af819c89dc807f6a06"
          ],
          "data": "0x00000000000000000000000000000000000000000000000000000002540be3ff",
          "blockHash": "0xc18bfe4a9c62e198a383ca0e26a953c871d1a14fc8720f49934827c326141a4a",
          "blockNumber": "0x15b",
          "blockTimestamp": "0x68918b4b",
          "transactionHash": "0x773ca1d3147cf364a765e2eda16e6e40714ea86fe7973a61ea8b4a777cc1c221",
          "transactionIndex": "0x0",
          "logIndex": "0x0",
          "removed": false
        }
      ],
      "logsBloom": "0x00000000000000000000000000000000000040000000000000000000000000000000000000000000000000000000000000000000000000000000000000000000000000000000100000000008000000004000000000000000400000000000000000000000021000000000000000000800000000000000000000000010000000000000000000000000000000000000000000000000000000000000000000000000000000000000000000000000000000000000000000000000000000000000000000000002000000000000000000000000000000000000000000000000000020000000000000000000000000000000000000000400000000000000000000000000",
      "type": "0x2",
      "transactionHash": "0x773ca1d3147cf364a765e2eda16e6e40714ea86fe7973a61ea8b4a777cc1c221",
      "transactionIndex": "0x0",
      "blockHash": "0xc18bfe4a9c62e198a383ca0e26a953c871d1a14fc8720f49934827c326141a4a",
      "blockNumber": "0x15b",
      "gasUsed": "0x859c",
      "effectiveGasPrice": "0x3b9aca07",
      "blobGasPrice": "0x1",
      "from": "0xf39fd6e51aad88f6f4ce6ab8827279cfffb92266",
      "to": "0x158d291d8b47f056751cff47d1eecd19fdf9b6f8",
      "contractAddress": null
    }
  ],
  "libraries": [],
  "pending": [],
  "returns": {},
  "timestamp": 1754368843,
  "chain": 1,
  "commit": "77ce4f0"
}