{
  "transactions": [
    {
      "hash": "0xa5a1e1b1127d56666b7ad78565584fc46d5d1d23996f227706fe2fa32a975e45",
      "transactionType": "CALL",
      "contractName": null,
      "contractAddress": "0xc32609c91d6b6b51d48f2611308fef121b02041f",
      "function": "mint(address,uint256)",
      "arguments": [
        "0x10e38eE9dd4C549b61400Fc19347D00eD3edAfC4",
        "9999999999"
      ],
      "transaction": {
        "from": "0xf39fd6e51aad88f6f4ce6ab8827279cfffb92266",
        "to": "0xc32609c91d6b6b51d48f2611308fef121b02041f",
        "gas": "0xb88b",
        "value": "0x0",
        "input": "0x40c10f1900000000000000000000000010e38ee9dd4c549b61400fc19347d00ed3edafc400000000000000000000000000000000000000000000000000000002540be3ff",
        "nonce": "0x149",
        "chainId": "0x1"
      },
      "additionalContracts": [],
      "isFixedGasLimit": false
    }
  ],
  "receipts": [
    {
      "status": "0x1",
      "cumulativeGasUsed": "0x859c",
      "logs": [
        {
          "address": "0xc32609c91d6b6b51d48f2611308fef121b02041f",
          "topics": [
            "0xddf252ad1be2c89b69c2b068fc378daa952ba7f163c4a11628f55a4df523b3ef",
            "0x0000000000000000000000000000000000000000000000000000000000000000",
            "0x00000000000000000000000010e38ee9dd4c549b61400fc19347d00ed3edafc4"
          ],
          "data": "0x00000000000000000000000000000000000000000000000000000002540be3ff",
          "blockHash": "0xb21493226bb9dfdb47aa06e21499ae0c30fe7cfd559f51c3bf6fe66ee1001263",
          "blockNumber": "0x16f",
          "blockTimestamp": "0x68918d28",
          "transactionHash": "0xa5a1e1b1127d56666b7ad78565584fc46d5d1d23996f227706fe2fa32a975e45",
          "transactionIndex": "0x0",
          "logIndex": "0x0",
          "removed": false
        }
      ],
      "logsBloom": "0x00000000000001000000000000000000000000000000000000000000000000000000000000000000000000000000000000000000000000000000000000000000000000000000004000000008000000000000000000000000000000000000000000000000020000000000000000000800000000000000000000000010000000000000000000000000000000400000000000000000000000000000000000000000000000000000000000000000000000000000000000000000000000000000000000000002000000002000000000000000000000040000000000000001000020000000000000000000000000000000000000000000000000000000000000000000",
      "type": "0x2",
      "transactionHash": "0xa5a1e1b1127d56666b7ad78565584fc46d5d1d23996f227706fe2fa32a975e45",
      "transactionIndex": "0x0",
      "blockHash": "0xb21493226bb9dfdb47aa06e21499ae0c30fe7cfd559f51c3bf6fe66ee1001263",
      "blockNumber": "0x16f",
      "gasUsed": "0x859c",
      "effectiveGasPrice": "0x3b9aca07",
      "blobGasPrice": "0x1",
      "from": "0xf39fd6e51aad88f6f4ce6ab8827279cfffb92266",
      "to": "0xc32609c91d6b6b51d48f2611308fef121b02041f",
      "contractAddress": null
    }
  ],
  "libraries": [],
  "pending": [],
  "returns": {},
  "timestamp": 1754369320,
  "chain": 1,
  "commit": "77ce4f0"
}