{
  "transactions": [
    {
      "hash": "0x606acd19d066307fa9b3a6a709e0970de68b756685e23de1b609763d61718bc6",
      "transactionType": "CALL",
      "contractName": null,
      "contractAddress": "0x1d8d70ad07c8e7e442ad78e4ac0a16f958eba7f0",
      "function": "mint(address,uint256)",
      "arguments": [
        "0xA9e6Bfa2BF53dE88FEb19761D9b2eE2e821bF1Bf",
        "9999999999"
      ],
      "transaction": {
        "from": "0xf39fd6e51aad88f6f4ce6ab8827279cfffb92266",
        "to": "0x1d8d70ad07c8e7e442ad78e4ac0a16f958eba7f0",
        "gas": "0xb88b",
        "value": "0x0",
        "input": "0x40c10f19000000000000000000000000a9e6bfa2bf53de88feb19761d9b2ee2e821bf1bf00000000000000000000000000000000000000000000000000000002540be3ff",
        "nonce": "0x12c",
        "chainId": "0x1"
      },
      "additionalContracts": [],
      "isFixedGasLimit": false
    }
  ],
  "receipts": [
    {
      "status": "0x1",
      "cumulativeGasUsed": "0x859c",
      "logs": [
        {
          "address": "0x1d8d70ad07c8e7e442ad78e4ac0a16f958eba7f0",
          "topics": [
            "0xddf252ad1be2c89b69c2b068fc378daa952ba7f163c4a11628f55a4df523b3ef",
            "0x0000000000000000000000000000000000000000000000000000000000000000",
            "0x000000000000000000000000a9e6bfa2bf53de88feb19761d9b2ee2e821bf1bf"
          ],
          "data": "0x00000000000000000000000000000000000000000000000000000002540be3ff",
          "blockHash": "0xee8c5b47154446a404b9af154652f8ed00f3b7ba95f8d349639d177843d827a8",
          "blockNumber": "0x146",
          "blockTimestamp": "0x68918160",
          "transactionHash": "0x606acd19d066307fa9b3a6a709e0970de68b756685e23de1b609763d61718bc6",
          "transactionIndex": "0x0",
          "logIndex": "0x0",
          "removed": false
        }
      ],
      "logsBloom": "0x00000000000000000000000000000000000000000000000000000000000000000000000000000000000000000000000000000000000000000000000000000000080010000000000000000008000000000000000000000000000040000000000000000000020000000000000000000800000000000004000000000010000000000000000000000000000000000800000000000000000000000000000000000000000000000000000000000000000000000000000000000000000000000000000000000002000000000000000000000000000000000000000000000000000020000000000000000000000000000200000000000000000000000000000000000000",
      "type": "0x2",
      "transactionHash": "0x606acd19d066307fa9b3a6a709e0970de68b756685e23de1b609763d61718bc6",
      "transactionIndex": "0x0",
      "blockHash": "0xee8c5b47154446a404b9af154652f8ed00f3b7ba95f8d349639d177843d827a8",
      "blockNumber": "0x146",
      "gasUsed": "0x859c",
      "effectiveGasPrice": "0x3b9aca07",
      "blobGasPrice": "0x1",
      "from": "0xf39fd6e51aad88f6f4ce6ab8827279cfffb92266",
      "to": "0x1d8d70ad07c8e7e442ad78e4ac0a16f958eba7f0",
      "contractAddress": null
    }
  ],
  "libraries": [],
  "pending": [],
  "returns": {},
  "timestamp": 1754366304,
  "chain": 1,
  "commit": "77ce4f0"
}