{
  "transactions": [
    {
      "hash": "0x3e5eda7fa432b274957f4af1740b7f01ae634bc16f135b510a48af72118f625c",
      "transactionType": "CALL",
      "contractName": null,
      "contractAddress": "0x7580708993de7ca120e957a62f26a5ddd4b3d8ac",
      "function": "mint(address,uint256)",
      "arguments": [
        "0x572316aC11CB4bc5daf6BDae68f43EA3CCE3aE0e",
        "9999999999"
      ],
      "transaction": {
        "from": "0xf39fd6e51aad88f6f4ce6ab8827279cfffb92266",
        "to": "0x7580708993de7ca120e957a62f26a5ddd4b3d8ac",
        "gas": "0xb88b",
        "value": "0x0",
        "input": "0x40c10f19000000000000000000000000572316ac11cb4bc5daf6bdae68f43ea3cce3ae0e00000000000000000000000000000000000000000000000000000002540be3ff",
        "nonce": "0x11e",
        "chainId": "0x1"
      },
      "additionalContracts": [],
      "isFixedGasLimit": false
    }
  ],
  "receipts": [
    {
      "status": "0x1",
      "cumulativeGasUsed": "0x859c",
      "logs": [
        {
          "address": "0x7580708993de7ca120e957a62f26a5ddd4b3d8ac",
          "topics": [
            "0xddf252ad1be2c89b69c2b068fc378daa952ba7f163c4a11628f55a4df523b3ef",
            "0x0000000000000000000000000000000000000000000000000000000000000000",
            "0x000000000000000000000000572316ac11cb4bc5daf6bdae68f43ea3cce3ae0e"
          ],
          "data": "0x00000000000000000000000000000000000000000000000000000002540be3ff",
          "blockHash": "0xed40d4e95b9ca8361969ab97d48fdb0366b7c20d1dac22117d4e2d457db23063",
          "blockNumber": "0x132",
          "blockTimestamp": "0x6891805a",
          "transactionHash": "0x3e5eda7fa432b274957f4af1740b7f01ae634bc16f135b510a48af72118f625c",
          "transactionIndex": "0x0",
          "logIndex": "0x0",
          "removed": false
        }
      ],
      "logsBloom": "0x00000000000000000000100000000000000000000000000000000000000000000000000000000000000000000000000000000000000000000000000000000000000000000000000000000808000000000000000000000000000000000000000000000000020000000000000000000800000000000000000000000010000000000000000000000000000000000000000000000000000000000000000000000000000000000000000040000000000000002000000000000000000000001000000000000002000000000000000000000000000000000000000000000000000020000000000000004000000000000000000000000000000000000000000000000000",
      "type": "0x2",
      "transactionHash": "0x3e5eda7fa432b274957f4af1740b7f01ae634bc16f135b510a48af72118f625c",
      "transactionIndex": "0x0",
      "blockHash": "0xed40d4e95b9ca8361969ab97d48fdb0366b7c20d1dac22117d4e2d457db23063",
      "blockNumber": "0x132",
      "gasUsed": "0x859c",
      "effectiveGasPrice": "0x3b9aca07",
      "blobGasPrice": "0x1",
      "from": "0xf39fd6e51aad88f6f4ce6ab8827279cfffb92266",
      "to": "0x7580708993de7ca120e957a62f26a5ddd4b3d8ac",
      "contractAddress": null
    }
  ],
  "libraries": [],
  "pending": [],
  "returns": {},
  "timestamp": 1754366042,
  "chain": 1,
  "commit": "77ce4f0"
}