{
  "transactions": [
    {
      "hash": "0xaf9a59ec3f41880e473e6dd8496d193e42bad9c949700ddf2bf6c8f29a866b03",
      "transactionType": "CALL",
      "contractName": null,
      "contractAddress": "0x262e2b50219620226c5fb5956432a88fffd94ba7",
      "function": "mint(address,uint256)",
      "arguments": [
        "0x10e38eE9dd4C549b61400Fc19347D00eD3edAfC4",
        "9999999999"
      ],
      "transaction": {
        "from": "0xf39fd6e51aad88f6f4ce6ab8827279cfffb92266",
        "to": "0x262e2b50219620226c5fb5956432a88fffd94ba7",
        "gas": "0xb88b",
        "value": "0x0",
        "input": "0x40c10f1900000000000000000000000010e38ee9dd4c549b61400fc19347d00ed3edafc400000000000000000000000000000000000000000000000000000002540be3ff",
        "nonce": "0x15d",
        "chainId": "0x1"
      },
      "additionalContracts": [],
      "isFixedGasLimit": false
    }
  ],
  "receipts": [
    {
      "status": "0x1",
      "cumulativeGasUsed": "0x859c",
      "logs": [
        {
          "address": "0x262e2b50219620226c5fb5956432a88fffd94ba7",
          "topics": [
            "0xddf252ad1be2c89b69c2b068fc378daa952ba7f163c4a11628f55a4df523b3ef",
            "0x0000000000000000000000000000000000000000000000000000000000000000",
            "0x00000000000000000000000010e38ee9dd4c549b61400fc19347d00ed3edafc4"
          ],
          "data": "0x00000000000000000000000000000000000000000000000000000002540be3ff",
          "blockHash": "0x9fbbb122955a1eee82992985192a8ea16adaeb408195d2fbdb6d45d14da99672",
          "blockNumber": "0x189",
          "blockTimestamp": "0x6891935b",
          "transactionHash": "0xaf9a59ec3f41880e473e6dd8496d193e42bad9c949700ddf2bf6c8f29a866b03",
          "transactionIndex": "0x0",
          "logIndex": "0x0",
          "removed": false
        }
      ],
      "logsBloom": "0x00000000000000000000000000000000000000000000000000000000000000000000000000000000000000000000000000000000000000000000000000000000000000000000000000000008000000000000000000000000000000000000000000000000020000000000000000800800000000000000004000000010000000000000000000000000000000400000000000000000000000000000000000000000000000000000000000000000000000002000000000000000000000000000000000000002000000002000000000000000000000040000000000000000000020000000000000000000000000000000000000000000000000000000000000000000",
      "type": "0x2",
      "transactionHash": "0xaf9a59ec3f41880e473e6dd8496d193e42bad9c949700ddf2bf6c8f29a866b03",
      "transactionIndex": "0x0",
      "blockHash": "0x9fbbb122955a1eee82992985192a8ea16adaeb408195d2fbdb6d45d14da99672",
      "blockNumber": "0x189",
      "gasUsed": "0x859c",
      "effectiveGasPrice": "0x3b9aca07",
      "blobGasPrice": "0x1",
      "from": "0xf39fd6e51aad88f6f4ce6ab8827279cfffb92266",
      "to": "0x262e2b50219620226c5fb5956432a88fffd94ba7",
      "contractAddress": null
    }
  ],
  "libraries": [],
  "pending": [],
  "returns": {},
  "timestamp": 1754370908,
  "chain": 1,
  "commit": "77ce4f0"
}