{
  "transactions": [
    {
      "hash": null,
      "transactionType": "CALL",
      "contractName": null,
      "contractAddress": "0xf2a08b9c303496f7ff99ce2d4a6b6efb65e0e752",
      "function": "setMaxExternalRatioBP(uint256)",
      "arguments": [
        "10000"
      ],
      "transaction": {
        "from": "0xc00c0bec9f5c6b245a5c232598b3a2cc1558c3c7",
        "to": "0xf2a08b9c303496f7ff99ce2d4a6b6efb65e0e752",
        "gas": "0x19c3c",
        "value": "0x0",
        "input": "0xf352e17e0000000000000000000000000000000000000000000000000000000000002710",
        "nonce": "0x1",
        "chainId": "0x1"
      },
      "additionalContracts": [],
      "isFixedGasLimit": false
    },
    {
      "hash": null,
      "transactionType": "CALL",
      "contractName": null,
      "contractAddress": "0xf2a08b9c303496f7ff99ce2d4a6b6efb65e0e752",
      "function": "resume()",
      "arguments": [],
      "transaction": {
        "from": "0xc00c0bec9f5c6b245a5c232598b3a2cc1558c3c7",
        "to": "0xf2a08b9c303496f7ff99ce2d4a6b6efb65e0e752",
        "gas": "0x291db",
        "value": "0x0",
        "input": "0x046f7da2",
        "nonce": "0x2",
        "chainId": "0x1"
      },
      "additionalContracts": [],
      "isFixedGasLimit": false
    },
    {
      "hash": null,
      "transactionType": "CALL",
      "contractName": null,
      "contractAddress": "0xf2a08b9c303496f7ff99ce2d4a6b6efb65e0e752",
      "function": "submit(address)",
      "arguments": [
        "0x9f7cF1d1F558E57ef88a59ac3D47214eF25B6A06"
      ],
      "transaction": {
        "from": "0xf39fd6e51aad88f6f4ce6ab8827279cfffb92266",
        "to": "0xf2a08b9c303496f7ff99ce2d4a6b6efb65e0e752",
        "gas": "0x1e7dc",
        "value": "0x8ac7230489e80000",
        "input": "0xa1903eab0000000000000000000000009f7cf1d1f558e57ef88a59ac3d47214ef25b6a06",
        "nonce": "0xb7",
        "chainId": "0x1"
      },
      "additionalContracts": [],
      "isFixedGasLimit": false
    }
  ],
  "receipts": [],
  "libraries": [],
  "pending": [],
  "returns": {},
  "timestamp": 1754242915,
  "chain": 1,
  "commit": "77ce4f0"
}